{
  "contractName": "BOXage",
  "abi": [
    {
      "inputs": [],
      "payable": false,
      "stateMutability": "nonpayable",
      "type": "constructor"
    },
    {
      "anonymous": false,
      "inputs": [
        {
          "indexed": false,
          "internalType": "uint256",
          "name": "sku",
          "type": "uint256"
        }
      ],
      "name": "Arrived",
      "type": "event"
    },
    {
      "anonymous": false,
      "inputs": [
        {
          "indexed": false,
          "internalType": "uint256",
          "name": "seller",
          "type": "uint256"
        }
      ],
      "name": "DailyBase",
      "type": "event"
    },
    {
      "anonymous": false,
      "inputs": [
        {
          "indexed": false,
          "internalType": "uint256",
          "name": "sku",
          "type": "uint256"
        }
      ],
      "name": "InStock",
      "type": "event"
    },
    {
      "anonymous": false,
      "inputs": [
        {
          "indexed": false,
          "internalType": "uint256",
          "name": "seller",
          "type": "uint256"
        }
      ],
      "name": "PremiumBase",
      "type": "event"
    },
    {
      "anonymous": false,
      "inputs": [
        {
          "indexed": false,
          "internalType": "uint256",
          "name": "seller",
          "type": "uint256"
        }
      ],
      "name": "PrimaryBase",
      "type": "event"
    },
    {
      "anonymous": false,
      "inputs": [
        {
          "indexed": false,
          "internalType": "uint256",
          "name": "sku",
          "type": "uint256"
        }
      ],
      "name": "Processing",
      "type": "event"
    },
    {
      "anonymous": false,
      "inputs": [
        {
          "indexed": false,
          "internalType": "uint256",
          "name": "sku",
          "type": "uint256"
        }
      ],
      "name": "Shipped",
      "type": "event"
    },
    {
      "constant": true,
      "inputs": [],
      "name": "CarrierCount",
      "outputs": [
        {
          "internalType": "uint256",
          "name": "",
          "type": "uint256"
        }
      ],
      "payable": false,
      "stateMutability": "view",
      "type": "function"
    },
    {
      "constant": true,
      "inputs": [
        {
          "internalType": "address",
          "name": "",
          "type": "address"
        }
      ],
      "name": "buyers",
      "outputs": [
        {
          "internalType": "string",
          "name": "name",
          "type": "string"
        },
        {
          "internalType": "uint256",
          "name": "contact",
          "type": "uint256"
        },
        {
          "internalType": "address",
          "name": "buyer",
          "type": "address"
        }
      ],
      "payable": false,
      "stateMutability": "view",
      "type": "function"
    },
    {
      "constant": true,
      "inputs": [],
      "name": "customerCount",
      "outputs": [
        {
          "internalType": "uint256",
          "name": "",
          "type": "uint256"
        }
      ],
      "payable": false,
      "stateMutability": "view",
      "type": "function"
    },
    {
      "constant": true,
      "inputs": [
        {
          "internalType": "address",
          "name": "",
          "type": "address"
        }
      ],
      "name": "customers",
      "outputs": [
        {
          "internalType": "string",
          "name": "name",
          "type": "string"
        },
        {
          "internalType": "uint256",
          "name": "contact",
          "type": "uint256"
        },
        {
          "internalType": "string",
          "name": "c_address",
          "type": "string"
        },
        {
          "internalType": "enum BOXage.SubscriptionType",
          "name": "subscriptionType",
          "type": "uint8"
        },
        {
          "internalType": "address",
          "name": "seller",
          "type": "address"
        },
        {
          "internalType": "bool",
          "name": "isCustomer",
          "type": "bool"
        }
      ],
      "payable": false,
      "stateMutability": "view",
      "type": "function"
    },
    {
      "constant": true,
      "inputs": [],
      "name": "owner",
      "outputs": [
        {
          "internalType": "address",
          "name": "",
          "type": "address"
        }
      ],
      "payable": false,
      "stateMutability": "view",
      "type": "function"
    },
    {
      "constant": true,
      "inputs": [],
      "name": "skuCount",
      "outputs": [
        {
          "internalType": "uint256",
          "name": "",
          "type": "uint256"
        }
      ],
      "payable": false,
      "stateMutability": "view",
      "type": "function"
    },
    {
      "constant": false,
      "inputs": [
        {
          "internalType": "string",
          "name": "_name",
          "type": "string"
        },
        {
          "internalType": "string",
          "name": "_c_address",
          "type": "string"
        },
        {
          "internalType": "uint256",
          "name": "_cntact",
          "type": "uint256"
        },
        {
          "internalType": "uint256",
          "name": "_subscriptionType",
          "type": "uint256"
        }
      ],
      "name": "addCustomer",
      "outputs": [
        {
          "internalType": "string",
          "name": "",
          "type": "string"
        }
      ],
      "payable": false,
      "stateMutability": "nonpayable",
      "type": "function"
    },
    {
      "constant": false,
      "inputs": [
        {
          "internalType": "string",
          "name": "_name",
          "type": "string"
        }
      ],
      "name": "addItem",
      "outputs": [
        {
          "internalType": "string",
          "name": "",
          "type": "string"
        }
      ],
      "payable": true,
      "stateMutability": "payable",
      "type": "function"
    },
    {
      "constant": false,
      "inputs": [
        {
          "internalType": "uint256",
          "name": "_sku",
          "type": "uint256"
        },
        {
          "internalType": "uint256",
          "name": "_buyerContact",
          "type": "uint256"
        },
        {
          "internalType": "string",
          "name": "_name",
          "type": "string"
        }
      ],
      "name": "buyItem",
      "outputs": [
        {
          "internalType": "string",
          "name": "",
          "type": "string"
        }
      ],
      "payable": false,
      "stateMutability": "nonpayable",
      "type": "function"
    },
    {
      "constant": false,
      "inputs": [
        {
          "internalType": "uint256",
          "name": "_sku",
          "type": "uint256"
        }
      ],
      "name": "shipItem",
      "outputs": [
        {
          "internalType": "string",
          "name": "",
          "type": "string"
        }
      ],
      "payable": false,
      "stateMutability": "nonpayable",
      "type": "function"
    },
    {
      "constant": false,
      "inputs": [
        {
          "internalType": "uint256",
          "name": "sku",
          "type": "uint256"
        }
      ],
      "name": "receiveItem",
      "outputs": [],
      "payable": false,
      "stateMutability": "nonpayable",
      "type": "function"
    },
    {
      "constant": true,
      "inputs": [
        {
          "internalType": "address",
          "name": "cutomer",
          "type": "address"
        }
      ],
      "name": "fetchCustomer",
      "outputs": [
        {
          "internalType": "string",
          "name": "name",
          "type": "string"
        },
        {
          "internalType": "uint256",
          "name": "contact",
          "type": "uint256"
        },
        {
          "internalType": "string",
          "name": "c_address",
          "type": "string"
        }
      ],
      "payable": false,
      "stateMutability": "view",
      "type": "function"
    },
    {
      "constant": true,
      "inputs": [
        {
          "internalType": "uint256",
          "name": "_sku",
          "type": "uint256"
        }
      ],
      "name": "fetchItem",
      "outputs": [
        {
          "internalType": "string",
          "name": "name",
          "type": "string"
        },
        {
          "internalType": "uint256",
          "name": "sku",
          "type": "uint256"
        },
        {
          "internalType": "string",
          "name": "state",
          "type": "string"
        },
        {
          "internalType": "string",
          "name": "S_name",
          "type": "string"
        },
        {
          "internalType": "uint256",
          "name": "s_contact",
          "type": "uint256"
        },
        {
          "internalType": "string",
          "name": "b_name",
          "type": "string"
        },
        {
          "internalType": "uint256",
          "name": "b_contact",
          "type": "uint256"
        },
        {
          "internalType": "address",
          "name": "carrier",
          "type": "address"
        }
      ],
      "payable": false,
      "stateMutability": "view",
      "type": "function"
    }
  ],
  "bytecode": "0x608060405234801561001057600080fd5b50336000806101000a81548173ffffffffffffffffffffffffffffffffffffffff021916908373ffffffffffffffffffffffffffffffffffffffff160217905550600060028190555060006001819055506000600381905550612a21806100786000396000f3fe6080604052600436106100c25760003560e01c80639757e8a31161007f578063ad4b9cfb11610059578063ad4b9cfb14610809578063df7b7e5f14610a49578063f062c6f814610c35578063f61c899a14610c60576100c2565b80639757e8a31461069f57806397a993aa146106ca578063a26be999146107ce576100c2565b806322702473146100c757806327e9f294146100f2578063336989ae146102265780633da97c07146103b657806349265d2b146104f35780638da5cb5b14610648575b600080fd5b3480156100d357600080fd5b506100dc610d14565b6040518082815260200191505060405180910390f35b6101ab6004803603602081101561010857600080fd5b810190808035906020019064010000000081111561012557600080fd5b82018360208201111561013757600080fd5b8035906020019184600183028401116401000000008311171561015957600080fd5b91908080601f016020809104026020016040519081016040528093929190818152602001838380828437600081840152601f19601f820116905080830192505050505050509192919290505050610d1a565b6040518080602001828103825283818151815260200191508051906020019080838360005b838110156101eb5780820151818401526020810190506101d0565b50505050905090810190601f1680156102185780820380516001836020036101000a031916815260200191505b509250505060405180910390f35b34801561023257600080fd5b506102756004803603602081101561024957600080fd5b81019080803573ffffffffffffffffffffffffffffffffffffffff169060200190929190505050611089565b60405180806020018781526020018060200186600281111561029357fe5b60ff1681526020018573ffffffffffffffffffffffffffffffffffffffff1673ffffffffffffffffffffffffffffffffffffffff16815260200184151515158152602001838103835289818151815260200191508051906020019080838360005b8381101561030f5780820151818401526020810190506102f4565b50505050905090810190601f16801561033c5780820380516001836020036101000a031916815260200191505b50838103825287818151815260200191508051906020019080838360005b8381101561037557808201518184015260208101905061035a565b50505050905090810190601f1680156103a25780820380516001836020036101000a031916815260200191505b509850505050505050505060405180910390f35b3480156103c257600080fd5b50610405600480360360208110156103d957600080fd5b81019080803573ffffffffffffffffffffffffffffffffffffffff16906020019092919050505061122f565b604051808060200184815260200180602001838103835286818151815260200191508051906020019080838360005b8381101561044f578082015181840152602081019050610434565b50505050905090810190601f16801561047c5780820380516001836020036101000a031916815260200191505b50838103825284818151815260200191508051906020019080838360005b838110156104b557808201518184015260208101905061049a565b50505050905090810190601f1680156104e25780820380516001836020036101000a031916815260200191505b509550505050505060405180910390f35b3480156104ff57600080fd5b506105cd6004803603606081101561051657600080fd5b8101908080359060200190929190803590602001909291908035906020019064010000000081111561054757600080fd5b82018360208201111561055957600080fd5b8035906020019184600183028401116401000000008311171561057b57600080fd5b91908080601f016020809104026020016040519081016040528093929190818152602001838380828437600081840152601f19601f820116905080830192505050505050509192919290505050611444565b6040518080602001828103825283818151815260200191508051906020019080838360005b8381101561060d5780820151818401526020810190506105f2565b50505050905090810190601f16801561063a5780820380516001836020036101000a031916815260200191505b509250505060405180910390f35b34801561065457600080fd5b5061065d6117c3565b604051808273ffffffffffffffffffffffffffffffffffffffff1673ffffffffffffffffffffffffffffffffffffffff16815260200191505060405180910390f35b3480156106ab57600080fd5b506106b46117e8565b6040518082815260200191505060405180910390f35b3480156106d657600080fd5b50610719600480360360208110156106ed57600080fd5b81019080803573ffffffffffffffffffffffffffffffffffffffff1690602001909291905050506117ee565b60405180806020018481526020018373ffffffffffffffffffffffffffffffffffffffff1673ffffffffffffffffffffffffffffffffffffffff168152602001828103825285818151815260200191508051906020019080838360005b83811015610791578082015181840152602081019050610776565b50505050905090810190601f1680156107be5780820380516001836020036101000a031916815260200191505b5094505050505060405180910390f35b3480156107da57600080fd5b50610807600480360360208110156107f157600080fd5b81019080803590602001909291905050506118d0565b005b34801561081557600080fd5b506108426004803603602081101561082c57600080fd5b8101908080359060200190929190505050611b20565b60405180806020018981526020018060200180602001888152602001806020018781526020018673ffffffffffffffffffffffffffffffffffffffff1673ffffffffffffffffffffffffffffffffffffffff16815260200185810385528d818151815260200191508051906020019080838360005b838110156108d25780820151818401526020810190506108b7565b50505050905090810190601f1680156108ff5780820380516001836020036101000a031916815260200191505b5085810384528b818151815260200191508051906020019080838360005b8381101561093857808201518184015260208101905061091d565b50505050905090810190601f1680156109655780820380516001836020036101000a031916815260200191505b5085810383528a818151815260200191508051906020019080838360005b8381101561099e578082015181840152602081019050610983565b50505050905090810190601f1680156109cb5780820380516001836020036101000a031916815260200191505b50858103825288818151815260200191508051906020019080838360005b83811015610a045780820151818401526020810190506109e9565b50505050905090810190601f168015610a315780820380516001836020036101000a031916815260200191505b509c5050505050505050505050505060405180910390f35b348015610a5557600080fd5b50610bba60048036036080811015610a6c57600080fd5b8101908080359060200190640100000000811115610a8957600080fd5b820183602082011115610a9b57600080fd5b80359060200191846001830284011164010000000083111715610abd57600080fd5b91908080601f016020809104026020016040519081016040528093929190818152602001838380828437600081840152601f19601f82011690508083019250505050505050919291929080359060200190640100000000811115610b2057600080fd5b820183602082011115610b3257600080fd5b80359060200191846001830284011164010000000083111715610b5457600080fd5b91908080601f016020809104026020016040519081016040528093929190818152602001838380828437600081840152601f19601f8201169050808301925050505050505091929192908035906020019092919080359060200190929190505050612334565b6040518080602001828103825283818151815260200191508051906020019080838360005b83811015610bfa578082015181840152602081019050610bdf565b50505050905090810190601f168015610c275780820380516001836020036101000a031916815260200191505b509250505060405180910390f35b348015610c4157600080fd5b50610c4a6125a2565b6040518082815260200191505060405180910390f35b348015610c6c57600080fd5b50610c9960048036036020811015610c8357600080fd5b81019080803590602001909291905050506125a8565b6040518080602001828103825283818151815260200191508051906020019080838360005b83811015610cd9578082015181840152602081019050610cbe565b50505050905090810190601f168015610d065780820380516001836020036101000a031916815260200191505b509250505060405180910390f35b60015481565b6060600560003373ffffffffffffffffffffffffffffffffffffffff1673ffffffffffffffffffffffffffffffffffffffff16815260200190815260200160002060030160159054906101000a900460ff16610dde576040517f08c379a000000000000000000000000000000000000000000000000000000000815260040180806020018281038252600c8152602001807f556e617574686f72697a6564000000000000000000000000000000000000000081525060200191505060405180910390fd5b7ff366589a7ce03de850993cbc9085de31b7fbb82b6731eebb7f820eb714e09f256001546040518082815260200191505060405180910390a16040518060e00160405280838152602001600154815260200160016004811115610e3d57fe5b8152602001600081526020013373ffffffffffffffffffffffffffffffffffffffff168152602001600073ffffffffffffffffffffffffffffffffffffffff168152602001600073ffffffffffffffffffffffffffffffffffffffff168152506004600060015481526020019081526020016000206000820151816000019080519060200190610ece92919061291e565b506020820151816001015560408201518160020160006101000a81548160ff02191690836004811115610efd57fe5b02179055506060820151816003015560808201518160040160006101000a81548173ffffffffffffffffffffffffffffffffffffffff021916908373ffffffffffffffffffffffffffffffffffffffff16021790555060a08201518160050160006101000a81548173ffffffffffffffffffffffffffffffffffffffff021916908373ffffffffffffffffffffffffffffffffffffffff16021790555060c08201518160060160006101000a81548173ffffffffffffffffffffffffffffffffffffffff021916908373ffffffffffffffffffffffffffffffffffffffff1602179055509050506001805401600181905550816040516020018082805190602001908083835b602083106110265780518252602082019150602081019050602083039250611003565b6001836020036101000a038019825116818451168082178552505050505050905001807f3a20686173206265656e206164646564207375636365737366756c6c79000000815250601d019150506040516020818303038152906040529050919050565b6005602052806000526040600020600091509050806000018054600181600116156101000203166002900480601f0160208091040260200160405190810160405280929190818152602001828054600181600116156101000203166002900480156111355780601f1061110a57610100808354040283529160200191611135565b820191906000526020600020905b81548152906001019060200180831161111857829003601f168201915b505050505090806001015490806002018054600181600116156101000203166002900480601f0160208091040260200160405190810160405280929190818152602001828054600181600116156101000203166002900480156111d95780601f106111ae576101008083540402835291602001916111d9565b820191906000526020600020905b8154815290600101906020018083116111bc57829003601f168201915b5050505050908060030160009054906101000a900460ff16908060030160019054906101000a900473ffffffffffffffffffffffffffffffffffffffff16908060030160159054906101000a900460ff16905086565b606060006060600560008573ffffffffffffffffffffffffffffffffffffffff1673ffffffffffffffffffffffffffffffffffffffff1681526020019081526020016000206000018054600181600116156101000203166002900480601f01602080910402602001604051908101604052809291908181526020018280546001816001161561010002031660029004801561130b5780601f106112e05761010080835404028352916020019161130b565b820191906000526020600020905b8154815290600101906020018083116112ee57829003601f168201915b50505050509250600560008573ffffffffffffffffffffffffffffffffffffffff1673ffffffffffffffffffffffffffffffffffffffff168152602001908152602001600020600101549150600560008573ffffffffffffffffffffffffffffffffffffffff1673ffffffffffffffffffffffffffffffffffffffff1681526020019081526020016000206002018054600181600116156101000203166002900480601f01602080910402602001604051908101604052809291908181526020018280546001816001161561010002031660029004801561142d5780601f106114025761010080835404028352916020019161142d565b820191906000526020600020905b81548152906001019060200180831161141057829003601f168201915b505050505090508282829250925092509193909250565b6060836001600481111561145457fe5b6004600083815260200190815260200160002060020160009054906101000a900460ff16600481111561148357fe5b146114f6576040517f08c379a000000000000000000000000000000000000000000000000000000000815260040180806020018281038252600e8152602001807f556e646566696e6564204974656d00000000000000000000000000000000000081525060200191505060405180910390fd5b60405180606001604052808481526020018581526020013373ffffffffffffffffffffffffffffffffffffffff16815250600660003373ffffffffffffffffffffffffffffffffffffffff1673ffffffffffffffffffffffffffffffffffffffff168152602001908152602001600020600082015181600001908051906020019061158292919061291e565b506020820151816001015560408201518160020160006101000a81548173ffffffffffffffffffffffffffffffffffffffff021916908373ffffffffffffffffffffffffffffffffffffffff160217905550905050836004600087815260200190815260200160002060030181905550336004600087815260200190815260200160002060050160006101000a81548173ffffffffffffffffffffffffffffffffffffffff021916908373ffffffffffffffffffffffffffffffffffffffff16021790555060026004600087815260200190815260200160002060020160006101000a81548160ff0219169083600481111561167a57fe5b02179055507f14b24b6d9a114cb42231df15d633b030dd811edd766084f85e157a038296398b856040518082815260200191505060405180910390a16004600086815260200190815260200160002060000183604051602001808380546001816001161561010002031660029004801561172b5780601f1061170957610100808354040283529182019161172b565b820191906000526020600020905b815481529060010190602001808311611717575b5050807f3d3e20486173204265656e20436865636b6564204f7574204279200000000000815250601b0182805190602001908083835b602083106117845780518252602082019150602081019050602083039250611761565b6001836020036101000a038019825116818451168082178552505050505050905001925050506040516020818303038152906040529150509392505050565b6000809054906101000a900473ffffffffffffffffffffffffffffffffffffffff1681565b60025481565b6006602052806000526040600020600091509050806000018054600181600116156101000203166002900480601f01602080910402602001604051908101604052809291908181526020018280546001816001161561010002031660029004801561189a5780601f1061186f5761010080835404028352916020019161189a565b820191906000526020600020905b81548152906001019060200180831161187d57829003601f168201915b5050505050908060010154908060020160009054906101000a900473ffffffffffffffffffffffffffffffffffffffff16905083565b803373ffffffffffffffffffffffffffffffffffffffff166004600083815260200190815260200160002060050160009054906101000a900473ffffffffffffffffffffffffffffffffffffffff1673ffffffffffffffffffffffffffffffffffffffff16146119a8576040517f08c379a000000000000000000000000000000000000000000000000000000000815260040180806020018281038252600c8152602001807f556e617574686f72697a6564000000000000000000000000000000000000000081525060200191505060405180910390fd5b81600360048111156119b657fe5b6004600083815260200190815260200160002060020160009054906101000a900460ff1660048111156119e557fe5b14611a58576040517f08c379a000000000000000000000000000000000000000000000000000000000815260040180806020018281038252600e8152602001807f556e646566696e6564204974656d00000000000000000000000000000000000081525060200191505060405180910390fd5b336004600085815260200190815260200160002060050160006101000a81548173ffffffffffffffffffffffffffffffffffffffff021916908373ffffffffffffffffffffffffffffffffffffffff160217905550600480600085815260200190815260200160002060020160006101000a81548160ff02191690836004811115611adf57fe5b02179055507fc9469a4b0b9b905aa8175cd140a67c77ff03fedd615ac354d36838649a918c2c836040518082815260200191505060405180910390a1505050565b60606000606080600060606000803373ffffffffffffffffffffffffffffffffffffffff16600460008b815260200190815260200160002060040160009054906101000a900473ffffffffffffffffffffffffffffffffffffffff1673ffffffffffffffffffffffffffffffffffffffff161480611bea57503373ffffffffffffffffffffffffffffffffffffffff166000809054906101000a900473ffffffffffffffffffffffffffffffffffffffff1673ffffffffffffffffffffffffffffffffffffffff16145b80611c5657503373ffffffffffffffffffffffffffffffffffffffff16600460008b815260200190815260200160002060050160009054906101000a900473ffffffffffffffffffffffffffffffffffffffff1673ffffffffffffffffffffffffffffffffffffffff16145b80611cc257503373ffffffffffffffffffffffffffffffffffffffff16600460008b815260200190815260200160002060060160009054906101000a900473ffffffffffffffffffffffffffffffffffffffff1673ffffffffffffffffffffffffffffffffffffffff16145b156123285788600460008b81526020019081526020016000206001015414611d52576040517f08c379a00000000000000000000000000000000000000000000000000000000081526004018080602001828103825260198152602001807f506c6561736520656e74657220612076616c696420534b55200000000000000081525060200191505060405180910390fd5b600460008a81526020019081526020016000206000018054600181600116156101000203166002900480601f016020809104026020016040519081016040528092919081815260200182805460018160011615610100020316600290048015611dfc5780601f10611dd157610100808354040283529160200191611dfc565b820191906000526020600020905b815481529060010190602001808311611ddf57829003601f168201915b50505050509750600460008a815260200190815260200160002060010154965060016004811115611e2957fe5b6004600089815260200190815260200160002060020160009054906101000a900460ff166004811115611e5857fe5b1415611e9b576040518060400160405280600781526020017f496e53746f636b000000000000000000000000000000000000000000000000008152509550612016565b60026004811115611ea857fe5b6004600089815260200190815260200160002060020160009054906101000a900460ff166004811115611ed757fe5b1415611f1a576040518060400160405280600a81526020017f50726f63657373696e67000000000000000000000000000000000000000000008152509550612015565b60036004811115611f2757fe5b6004600089815260200190815260200160002060020160009054906101000a900460ff166004811115611f5657fe5b1415611f99576040518060400160405280600781526020017f53686970706564000000000000000000000000000000000000000000000000008152509550612014565b600480811115611fa557fe5b6004600089815260200190815260200160002060020160009054906101000a900460ff166004811115611fd457fe5b1415612013576040518060400160405280600781526020017f417272697665640000000000000000000000000000000000000000000000000081525095505b5b5b5b6000600460008b815260200190815260200160002060040160009054906101000a900473ffffffffffffffffffffffffffffffffffffffff169050600560008273ffffffffffffffffffffffffffffffffffffffff1673ffffffffffffffffffffffffffffffffffffffff1681526020019081526020016000206000018054600181600116156101000203166002900480601f0160208091040260200160405190810160405280929190818152602001828054600181600116156101000203166002900480156121275780601f106120fc57610100808354040283529160200191612127565b820191906000526020600020905b81548152906001019060200180831161210a57829003601f168201915b50505050509550600560008273ffffffffffffffffffffffffffffffffffffffff1673ffffffffffffffffffffffffffffffffffffffff1681526020019081526020016000206001015494506000600460008c815260200190815260200160002060050160009054906101000a900473ffffffffffffffffffffffffffffffffffffffff169050600660008273ffffffffffffffffffffffffffffffffffffffff1673ffffffffffffffffffffffffffffffffffffffff168152602001908152602001600020600101549350600660008273ffffffffffffffffffffffffffffffffffffffff1673ffffffffffffffffffffffffffffffffffffffff1681526020019081526020016000206000018054600181600116156101000203166002900480601f0160208091040260200160405190810160405280929190818152602001828054600181600116156101000203166002900480156122c95780601f1061229e576101008083540402835291602001916122c9565b820191906000526020600020905b8154815290600101906020018083116122ac57829003601f168201915b50505050509450600460008c815260200190815260200160002060060160009054906101000a900473ffffffffffffffffffffffffffffffffffffffff1692508989898989898989995099509950995099509950995099505050612329565b5b919395975091939597565b60606000808314156123495760009050612390565b600183141561235b576001905061238f565b600283141561236d576002905061238e565b6040518060600160405280602981526020016129c46029913991505061259a565b5b5b6040518060c001604052808781526020018581526020018681526020018260028111156123b957fe5b81526020013373ffffffffffffffffffffffffffffffffffffffff16815260200160011515815250600560003373ffffffffffffffffffffffffffffffffffffffff1673ffffffffffffffffffffffffffffffffffffffff168152602001908152602001600020600082015181600001908051906020019061243c92919061291e565b5060208201518160010155604082015181600201908051906020019061246392919061291e565b5060608201518160030160006101000a81548160ff0219169083600281111561248857fe5b021790555060808201518160030160016101000a81548173ffffffffffffffffffffffffffffffffffffffff021916908373ffffffffffffffffffffffffffffffffffffffff16021790555060a08201518160030160156101000a81548160ff021916908315150217905550905050600160025401600281905550856040516020018082805190602001908083835b6020831061253a5780518252602082019150602081019050602083039250612517565b6001836020036101000a038019825116818451168082178552505050505050905001807f3a20486173206265656e206164646564207375636365737366756c6c79000000815250601d019150506040516020818303038152906040529150505b949350505050565b60035481565b6060813373ffffffffffffffffffffffffffffffffffffffff166004600083815260200190815260200160002060050160009054906101000a900473ffffffffffffffffffffffffffffffffffffffff1673ffffffffffffffffffffffffffffffffffffffff161415801561267f57503373ffffffffffffffffffffffffffffffffffffffff166004600083815260200190815260200160002060040160009054906101000a900473ffffffffffffffffffffffffffffffffffffffff1673ffffffffffffffffffffffffffffffffffffffff1614155b6126f1576040517f08c379a000000000000000000000000000000000000000000000000000000000815260040180806020018281038252600c8152602001807f556e617574686f72697a6564000000000000000000000000000000000000000081525060200191505060405180910390fd5b82600260048111156126ff57fe5b6004600083815260200190815260200160002060020160009054906101000a900460ff16600481111561272e57fe5b146127a1576040517f08c379a000000000000000000000000000000000000000000000000000000000815260040180806020018281038252600e8152602001807f556e646566696e6564204974656d00000000000000000000000000000000000081525060200191505060405180910390fd5b336004600086815260200190815260200160002060060160006101000a81548173ffffffffffffffffffffffffffffffffffffffff021916908373ffffffffffffffffffffffffffffffffffffffff16021790555060036004600086815260200190815260200160002060020160006101000a81548160ff0219169083600481111561282957fe5b02179055507ff00b9a5725b80c54016f42114f6ed7792d22eecb116011c4afac29c57bef6c95846040518082815260200191505060405180910390a16004600085815260200190815260200160002060000160405160200180828054600181600116156101000203166002900480156128d95780601f106128b75761010080835404028352918201916128d9565b820191906000526020600020905b8154815290600101906020018083116128c5575b5050807f3a204f757420776974682043617272696572000000000000000000000000000081525060120191505060405160208183030381529060405292505050919050565b828054600181600116156101000203166002900490600052602060002090601f016020900481019282601f1061295f57805160ff191683800117855561298d565b8280016001018555821561298d579182015b8281111561298c578251825591602001919060010190612971565b5b50905061299a919061299e565b5090565b6129c091905b808211156129bc5760008160009055506001016129a4565b5090565b9056fe706c65617320696e74657220612076616c6964206e756d626572206265747765656e203020746f2032a265627a7a723158207448fe6d573b7ed93b143fe1168e349860306e321b3ea61e113582d64416ad6a64736f6c63430005100032",
  "source": "// SPDX-License-Identifier: MIT\n\npragma solidity >=0.5.16;\n\ncontract BOXage {\n    /* ======================== start declaration.================================== */\n\n    /* set owner */\n    address public owner;\n    // address  public seller;\n    /* tracker var*/\n    uint256 public skuCount;\n    uint256 public customerCount;\n    uint256 public CarrierCount;\n    // ===  mapping === //\n    mapping(uint256 => Item) items;\n    mapping(address => Customer) public customers;\n    mapping(address => Buyer) public buyers;\n    mapping(address => Carrier) carriers;\n\n    //mapping(address => bool) public customers;\n    /*declaring item State*/\n    enum State {\n        Undefined,\n        InStock,\n        Processing,\n        Shipped,\n        Arrived\n    }\n    enum SubscriptionType {\n        DailyBase,\n        PrimaryBase,\n        PremiumBase\n    }\n\n    struct Customer {\n        string name;\n        uint256 contact;\n        string c_address;\n        SubscriptionType subscriptionType;\n        address seller;\n        bool isCustomer;\n    }\n    struct Buyer {\n        string name;\n        uint256 contact;\n        address buyer;\n    }\n    struct Item {\n        string name;\n        uint256 sku;\n        State state;\n        uint256 buyerContact;\n        address seller;\n        address buyer;\n        address carrier;\n    }\n\n    struct Carrier {\n        string name;\n        uint256 contact;\n        address carrier;\n        bool isCarrier;\n    }\n\n    /* ======================== end  of declaration.================================== */\n\n    /* ========================  events.================================== */\n\n    event InStock(uint256 sku);\n    event Processing(uint256 sku);\n    event Shipped(uint256 sku);\n    event Arrived(uint256 sku);\n    event DailyBase(uint256 seller);\n    event PrimaryBase(uint256 seller);\n    event PremiumBase(uint256 seller);\n\n    /* ======================== end of events.================================== */\n\n    /* ========================  modifiers.================================== */\n\n    /* Create a modifer that checks if the msg.sender is the owner of the contract */\n\n    modifier isOwner() {\n        require(owner == msg.sender);\n        _;\n    }\n    modifier isCustomer() {\n        require(customers[msg.sender].isCustomer, \"Unauthorized\");\n        _;\n    }\n    modifier isBuyer(uint256 sku) {\n        require(items[sku].buyer == msg.sender, \"Unauthorized\");\n        _;\n    }\n    // modifier  isCarrier {\n    //     require(carriers[msg.sender].isCarrier,\"Unauthorized\");\n    //     _;\n    // }\n    modifier isCarrier(uint256 sku) {\n        require(\n            items[sku].buyer != msg.sender && items[sku].seller != msg.sender,\n            \"Unauthorized\"\n        );\n        _;\n    }\n\n    modifier belongTo(uint256 sku) {\n        require(\n            items[sku].seller == msg.sender ||\n                owner == msg.sender ||\n                items[sku].buyer == msg.sender ||\n                items[sku].carrier == msg.sender,\n            \"Unauthorized\"\n        );\n        _;\n    }\n\n    modifier inStock(uint256 sku) {\n        require(items[sku].state == State.InStock, \"Undefined Item\");\n        _;\n    }\n\n    modifier processing(uint256 sku) {\n        require(items[sku].state == State.Processing, \"Undefined Item\");\n        _;\n    }\n\n    modifier shipped(uint256 sku) {\n        require(items[sku].state == State.Shipped, \"Undefined Item\");\n        _;\n    }\n\n    modifier arrived(uint256 sku) {\n        require(\n            items[sku].state == State.Arrived,\n            \"You Can't Change the Item State To arrive before it been shipped ?\"\n        );\n        _;\n    }\n    modifier dailyBase(address seller) {\n        require(\n            customers[seller].subscriptionType == SubscriptionType.DailyBase\n        );\n        _;\n    }\n\n    modifier primaryBase(address seller) {\n        require(\n            customers[seller].subscriptionType == SubscriptionType.PrimaryBase\n        );\n        _;\n    }\n\n    modifier premiumBase(address seller) {\n        require(\n            customers[seller].subscriptionType == SubscriptionType.PrimaryBase\n        );\n        _;\n    }\n\n    /* ======================== end of modifiers.================================== */\n\n\n    //===================================== post functions ======================================================================//\n    constructor() public {\n        /* Here, set the owner as the person who instantiated the contract\n       and set your skuCount to 0. */\n        owner = msg.sender;\n        customerCount = 0;\n        skuCount = 0;\n        CarrierCount = 0;\n    }\n\n    function addCustomer(\n        string memory _name,\n        string memory _c_address,\n        uint256 _cntact,\n        uint256 _subscriptionType\n    ) public returns (string memory) {\n        SubscriptionType DsubscriptionType;\n        if (_subscriptionType == 0) {\n            DsubscriptionType = SubscriptionType.DailyBase;\n        } else if (_subscriptionType == 1) {\n            DsubscriptionType = SubscriptionType.PrimaryBase;\n        } else if (_subscriptionType == 2) {\n            DsubscriptionType = SubscriptionType.PremiumBase;\n        } else {\n            return \"pleas inter a valid number between 0 to 2\";\n        }\n\n        customers[msg.sender] = Customer({\n            name: _name,\n            contact: _cntact,\n            c_address: _c_address,\n            subscriptionType: DsubscriptionType,\n            isCustomer: true,\n            seller: msg.sender\n        });\n        customerCount = customerCount + 1;\n            return  string(abi.encodePacked(_name,\": Has been added successfully\"));\n    }\n\n    function addItem(string memory _name)\n        public\n        payable\n        isCustomer\n        returns (string memory)\n    {\n        emit InStock(skuCount);\n        items[skuCount] = Item({\n            name: _name,\n            sku: skuCount,\n            state: State.InStock,\n            buyerContact: uint256(0),\n            seller: msg.sender,\n            buyer: address(0),\n            carrier: address(0)\n        });\n        skuCount = skuCount + 1;\n        return  string(abi.encodePacked(_name,\": has been added successfully\"));\n    }\n\n    function buyItem(\n        uint256 _sku,\n        uint256 _buyerContact,\n        string memory _name\n    ) public inStock(_sku) returns (string memory) {\n        buyers[msg.sender] = Buyer({\n            name: _name,\n            contact: _buyerContact,\n            buyer: msg.sender\n        });\n        items[_sku].buyerContact = _buyerContact;\n        items[_sku].buyer = msg.sender;\n        items[_sku].state = State.Processing;\n        emit Processing(_sku);\n        return string(abi.encodePacked(items[_sku].name,\"=> Has Been Checked Out By \",_name));\n    }\n\n    function shipItem(uint256 _sku) public isCarrier(_sku) processing(_sku) returns (string memory) {\n        items[_sku].carrier = msg.sender;\n        items[_sku].state = State.Shipped;\n        emit Shipped(_sku);\n    return string(abi.encodePacked(items[_sku].name,\": Out with Carrier\"));\n    }\n\n    //===================================== End of Post functions ====================================================================================================//\n\n    //===================================== Transactions =======================//\n    function receiveItem(uint256 sku) public isBuyer(sku) shipped(sku) {\n        items[sku].buyer = msg.sender;\n        items[sku].state = State.Arrived;\n        emit Arrived(sku);\n    }\n\n    //===================================== End of Transactions =======================//\n    function fetchCustomer(address cutomer)\n        public\n        view\n        returns (\n            string memory name,\n            uint256 contact,\n            string memory c_address\n        )\n    {\n        name = customers[cutomer].name;\n        contact = customers[cutomer].contact;\n        c_address = customers[cutomer].c_address;\n        return (name, contact, c_address);\n    }\n\n    //===================================== fetching functions ====================================================================================================//\n    function fetchItem(uint256 _sku)\n        public\n        view\n        returns (\n            //belongTo(_sku)\n            string memory name,\n            uint256 sku,\n            string memory state,\n            string memory S_name,\n            uint256 s_contact,\n            string memory b_name,\n            uint256 b_contact,\n            address carrier\n        )\n    {\n        if (\n            items[_sku].seller == msg.sender ||\n            owner == msg.sender ||\n            items[_sku].buyer == msg.sender ||\n            items[_sku].carrier == msg.sender\n        ) {\n            require(items[_sku].sku == _sku, \"Please enter a valid SKU \");\n            name = items[_sku].name;\n            sku = items[_sku].sku;\n            if (items[sku].state == State.InStock) {\n                state = \"InStock\";\n            } else if (items[sku].state == State.Processing) {\n                state = \"Processing\";\n            } else if (items[sku].state == State.Shipped) {\n                state = \"Shipped\";\n            } else if (items[sku].state == State.Arrived) {\n                state = \"Arrived\";\n            }\n            address seller = items[_sku].seller;\n            S_name = customers[seller].name;\n            s_contact = customers[seller].contact;\n            address buyer = items[_sku].buyer;\n            b_contact = buyers[buyer].contact;\n            b_name = buyers[buyer].name;\n            carrier = items[_sku].carrier;\n            return (\n                name,\n                sku,\n                state,\n                S_name,\n                s_contact,\n                b_name,\n                b_contact,\n                carrier\n            );\n        } else {}\n    }\n}\n",
  "sourcePath": "/Users/omaralhazmi/Documents/BOXage/contracts/BOXage.sol",
  "compiler": {
    "name": "solc",
    "version": "0.5.16+commit.9c3226ce.Emscripten.clang"
  },
  "schemaVersion": "3.4.2",
  "updatedAt": "2021-08-11T17:27:22.640Z",
  "networkType": "ethereum",
  "devdoc": {
    "methods": {}
  },
  "userdoc": {
    "methods": {}
  }
}